
txapi.getRawTransaction|2e8a14d88912c48a496205f42989bff790f125222befe271f0a589db16ef0b6e
{"result":{"txid":"2e8a14d88912c48a496205f42989bff790f125222befe271f0a589db16ef0b6e","hash":"bd08f8afed6e58fe040f97464839faadd42ddfbe7633fe1fdf101929e0d54958","version":2,"size":183,"vsize":156,"weight":624,"locktime":0,"vin":[{"coinbase":"02fb050101","sequence":4294967295}],"vout":[{"value":0.04882812,"n":0,"scriptPubKey":{"asm":"03af336dd83140ef0b76cada4efe9e2c34a75b1051e60e70e15df781be5d5d5c4a OP_CHECKSIG","hex":"2103af336dd83140ef0b76cada4efe9e2c34a75b1051e60e70e15df781be5d5d5c4aac","reqSigs":1,"type":"pubkey","addresses":["msfCje8MYCsVsL1bxeqXzbKnoU3bYLXwsm"]}},{"value":0.00000000,"n":1,"scriptPubKey":{"asm":"OP_RETURN aa21a9ede2f61c3f71d1defd3fa999dfa36953755c690689799962b48bebd836974e8cf9","hex":"6a24aa21a9ede2f61c3f71d1defd3fa999dfa36953755c690689799962b48bebd836974e8cf9","type":"nulldata"}}],"hex":"020000000001010000000000000000000000000000000000000000000000000000000000000000ffffffff0502fb050101ffffffff027c814a0000000000232103af336dd83140ef0b76cada4efe9e2c34a75b1051e60e70e15df781be5d5d5c4aac0000000000000000266a24aa21a9ede2f61c3f71d1defd3fa999dfa36953755c690689799962b48bebd836974e8cf90120000000000000000000000000000000000000000000000000000000000000000000000000","blockhash":"36b6b930aa3b606a76cfe3d93ac0b464f4b413846176f4a569db5202d10ca220","confirmations":1,"time":1579515301,"blocktime":1579515301},"error":null,"id":12}